:020000040800F2
:10000000C0360124E502010881F80008B9020108A0
:10001000B9020108B9020108B90201080000000094
:1000200000000000000000000000000061F900086E
:10003000B90201080000000009F9000841F50208B2
:1000400021FA000821FA000821FA000821FA000824
:1000500021FA000821FA000821FA000821FA000814
:1000600021FA000821FA000821FA000821FA000804
:1000700021FA000821FA000821FA000821FA0008F4
:0402BC00FFFFFFFF42
:1002C00090F800F06DE9024520F007016FF0000C96
:1002D00010F0070491F820F040F049804FF000043E
:1002E0006FF00700D1E9002391F840F000F1080019
:1002F00082FA4CF2A4FA8CF283FA4CF3A2FA8CF351
:100300004BBBD1E9022382FA4CF200F10800A4FAB7
:100310008CF283FA4CF3A2FA8CF3E3B9D1E904230B
:1003200082FA4CF200F10800A4FA8CF283FA4CF342
:10033000A2FA8CF37BB9D1E9062301F1200182FAFC
:100340004CF200F10800A4FA8CF283FA4CF3A2FA02
:100350008CF3002BC6D0002A04BF04301A4612BA10
:10036000B2FA82F2FDE8024500EBD2007047D1E913
:10037000002304F00305C4F100004FEAC50514F0A2
:10038000040F91F840F00CFA05F562EA05021CBF73
:1003900063EA050362464FF00004A9E7000000008D
:1003A000A2EB0300704700BF02780B78012A28BF38
:1003B0009A42F5D16DE9044540EA0104CDE90267AE
:1003C0006FF0000C4FEA447212B380EA010414F09B
:1003D000070F6AD100F0070420F0070004F00305BE
:1003E00021F007014FEAC505F0E8042314F0040FDB
:1003F000F1E804670CFA05F462EA040266EA04060E
:100400000AD063EA0403624667EA0407664603E02B
:10041000F0E80423F1E8046782FA4CF582EA060466
:10042000A4FA8CF46CBB83FA4CF583EA0705A5FAB1
:100430008CF595B950E9022351E9026782FA4CF52F
:1004400082EA0604A4FA8CF483FA4CF583EA0705E1
:10045000A5FA8CF52543DBD09CB92DBAB5FA85F405
:1004600024F0070427FA04F1DDE9026723FA04F314
:1004700003F0FF0001F0FF01FDE80445A0EB0100DF
:10048000704724BAB4FA84F424F0070426FA04F17D
:10049000DDE9026722FA04F202F0FF0001F0FF0139
:1004A000FDE80445A0EB0100704714F0030F3CD1B8
:1004B00010F0030428D150F8082B51F8083B82FAB9
:1004C0004CF582EA0305A5FA8CF55DB950F8042CC9
:1004D00051F8043C82FA4CF582EA0305A5FA8CF542
:1004E000002DE8D02DBAB5FA85F424F0070423FADC
:1004F00004F122FA04F202F0FF0001F0FF01FDE82E
:100500000445A0EB010070474FEAC40420F003004B
:1005100050F8082B21F0030151F8083B0CFA04F4C1
:1005200062EA040263EA0403C9E710F003041AD084
:10053000A1EB040120F00300E40750F8042B06D0DF
:100540000FD28B785FFAA2F4E41A06D12BB1CB78E4
:100550005FFAB2F4E41A00D11BB920465DF8104BE3
:10056000704701F1040150F8042BCC0721F003017E
:1005700051F8043B48D824D222F07F4482FA4CF54B
:1005800094EA1325A5FA8CF50AD165B951F8043B14
:1005900084EA0204B4EB036F0ED150F8042BEBE7AE
:1005A0004FEA132355E035F07F454DD10878FDE83B
:1005B0000445C0F1000070474FEA126203F0FF03E8
:1005C00047E002EA1C4482FA4CF594EA1345A5FA86
:1005D0008CF50AD165B951F8043B84EA0204B4EB06
:1005E000034F0CD150F8042BEBE74FEA134330E0F4
:1005F00015EA1C4528D10B884FEA124229E04FEA40
:10060000124203EA1C4324E002F0FF0482FA4CF594
:1006100094EA1365A5FA8CF50AD165B951F8043B43
:1006200084EA0204B4EB032F09D150F8042BEBE762
:100630004FEA13630DE015F0FF0F05D10B684FEA89
:10064000122223F07F4304E04FF00000FDE8044550
:10065000704712BA1BBA82FA4CF482EA0304A4FA75
:100660008CF5B5FA85F402FA04F203FA04F34FEAC2
:100670001260FDE80445A0EB136070470000000025
:1006800001F0FF01102A2BDB10F0070F08D010F843
:10069000013B013A8B422DD010F0070F42B3F6D147
:1006A000F0B441EA012141EA014122F007047FF060
:1006B00000070023F0E80256083C85EA010586EAB7
:1006C000010685FA47F5A3FA87F586FA47F6A5FAF3
:1006D00087F68EB9EED1F0BC01F0FF0102F00702FF
:1006E00032B110F8013B013A83EA010313B1F8D1AA
:1006F0000020704701387047002D06BF354603388B
:10070000073815F0010F07D1013015F4807F02BFC3
:10071000013015F4C03F0130F0BC0138704700BF14
:1007200081F0004102E000BF83F0004330B54FEAA2
:1007300041044FEA430594EA050F08BF90EA020F0F
:100740001FBF54EA000C55EA020C7FEA645C7FEAA2
:10075000655C00F0E2804FEA5454D4EB5555B8BFC5
:100760006D420CDD2C4480EA020281EA030382EA36
:10077000000083EA010180EA020281EA0303362DC8
:1007800088BF30BD11F0004F4FEA01314FF4801C9B
:100790004CEA113102D0404261EB410113F0004FAD
:1007A0004FEA03334CEA133302D0524263EB430364
:1007B00094EA050F00F0A780A4F10104D5F1200E02
:1007C0000DDB02FA0EFC22FA05F2801841F100015D
:1007D00003FA0EF2801843FA05F359410EE0A5F131
:1007E00020050EF1200E012A03FA0EFC28BF4CF062
:1007F000020C43FA05F3C01851EBE37101F0004518
:1008000007D54FF0000EDCF1000C7EEB00006EEB24
:100810000101B1F5801F1BD3B1F5001F0CD34908AE
:100820005FEA30004FEA3C0C04F101044FEA445205
:1008300012F5800F80F09A80BCF1004F08BF5FEA8C
:10084000500C50F1000041EB045141EA050130BD6C
:100850005FEA4C0C404141EB0101013C28BFB1F57E
:10086000801FE9D291F0000F04BF01460020B1FAC9
:1008700081F308BF2033A3F10B03B3F120020CDA9C
:100880000C3208DD02F1140CC2F10C0201FA0CF07A
:1008900021FA02F10CE002F11402D8BFC2F1200CDF
:1008A00001FA02F120FA0CFCDCBF41EA0C01904095
:1008B000E41AA2BF01EB0451294330BD6FEA0404DE
:1008C0001F3C1CDA0C340EDC04F11404C4F12002C9
:1008D00020FA04F001FA02F340EA030021FA04F3DB
:1008E00045EA030130BDC4F10C04C4F1200220FA32
:1008F00002F001FA04F340EA0300294630BD21FA70
:1009000004F0294630BD94F0000F83F4801306BF35
:1009100081F480110134013D4EE77FEA645C18BF29
:100920007FEA655C29D094EA050F08BF90EA020FC0
:1009300005D054EA000C04BF1946104630BD91EAB8
:10094000030F1EBF0021002030BD5FEA545C05D1BB
:100950004000494128BF41F0004130BD14F58004FA
:100960003CBF01F5801130BD01F0004545F0FE416E
:1009700041F470014FF0000030BD7FEA645C1ABFA3
:10098000194610467FEA655C1CBF0B46024650EADA
:10099000013406BF52EA033591EA030F41F4002106
:1009A00030BD00BF90F0000F04BF0021704730B58C
:1009B0004FF4806404F132044FF000054FF0000161
:1009C00050E700BF90F0000F04BF0021704730B522
:1009D0004FF4806404F1320410F0004548BF4042F7
:1009E0004FF000013EE700BF42004FEAE2014FEA4C
:1009F00031014FEA02701FBF12F07F4393F07F4F27
:100A000081F06051704732F07F4208BF704793F029
:100A10007F4F04BF41F40021704730B54FF460743C
:100A200001F0004521F000411CE700BF50EA01023F
:100A300008BF704730B54FF000050AE050EA0102E8
:100A400008BF704730B511F0004502D5404261EB58
:100A500041014FF4806404F132045FEA915C3FF499
:100A6000D8AE4FF003025FEADC0C18BF03325FEA36
:100A7000DC0C18BF033202EBDC02C2F1200300FAE7
:100A800003FC20FA02F001FA03FE40EA0E0021FA0C
:100A900002F11444BDE600BF70B54FF0FF0C4CF4FA
:100AA000E06C1CEA11541DBF1CEA135594EA0C0FAC
:100AB00095EA0C0F00F0DEF82C4481EA030621EAE7
:100AC0004C5123EA4C5350EA013518BF52EA033522
:100AD00041F4801143F4801338D0A0FB02CE4FF0D4
:100AE0000005E1FB02E506F00042E0FB03E54FF004
:100AF0000006E1FB03569CF0000F18BF4EF0010EFC
:100B0000A4F1FF04B6F5007F64F5407404D25FEAF7
:100B10004E0E6D4146EB060642EAC62141EA5551AA
:100B20004FEAC52040EA5E504FEACE2EB4F1FD0CEC
:100B300088BFBCF5E06F1ED8BEF1004F08BF5FEA6A
:100B4000500E50F1000041EB045170BD06F000461C
:100B500046EA010140EA020081EA0301B4EB5C04C9
:100B6000C2BFD4EB0C0541EA045170BD41F48011C1
:100B70004FF0000E013C00F3AB8014F1360FDEBFE6
:100B8000002001F0004170BDC4F10004203C35DAC2
:100B90000C341BDC04F11404C4F1200500FA05F345
:100BA00020FA04F001FA05F240EA020001F00042E6
:100BB00021F0004110EBD37021FA04F642EB06015C
:100BC0005EEA430E08BF20EAD37070BDC4F10C0486
:100BD000C4F1200500FA04F320FA05F001FA04F24A
:100BE00040EA020001F0004110EBD37041F1000136
:100BF0005EEA430E08BF20EAD37070BDC4F1200541
:100C000000FA05F24EEA020E20FA04F301FA05F2A8
:100C100043EA020321FA04F001F0004121FA04F250
:100C200020EA020000EBD3705EEA430E08BF20EA20
:100C3000D37070BD94F0000F0FD101F0004640005A
:100C400041EB010111F4801F08BF013CF7D041EADC
:100C5000060195F0000F18BF704703F000465200E0
:100C600043EB030313F4801F08BF013DF7D043EAB1
:100C70000603704794EA0C0F0CEA135518BF95EA67
:100C80000C0F0CD050EA410618BF52EA4306D1D1EE
:100C900081EA030101F000414FF0000070BD50EA0D
:100CA000410606BF1046194652EA430619D094EA97
:100CB0000C0F02D150EA013613D195EA0C0F05D181
:100CC00052EA03361CBF104619460AD181EA0301D5
:100CD00001F0004141F0FE4141F470014FF000008D
:100CE00070BD41F0FE4141F4780170BD70B54FF028
:100CF000FF0C4CF4E06C1CEA11541DBF1CEA1355A8
:100D000094EA0C0F95EA0C0F00F0A7F8A4EB050489
:100D100081EA030E52EA03354FEA013100F0888080
:100D20004FEA03334FF0805545EA131343EA126349
:100D30004FEA022245EA111545EA10654FEA0026FE
:100D40000EF000419D4208BF964244F1FD0404F5B7
:100D5000407402D25B084FEA3202B61A65EB030513
:100D60005B084FEA32024FF480104FF4002CB6EBD0
:100D7000020E75EB030E22BFB61A754640EA0C0050
:100D80005B084FEA3202B6EB020E75EB030E22BF90
:100D9000B61A754640EA5C005B084FEA3202B6EBD1
:100DA000020E75EB030E22BFB61A754640EA9C0090
:100DB0005B084FEA3202B6EB020E75EB030E22BF60
:100DC000B61A754640EADC0055EA060E18D04FEA1E
:100DD000051545EA16754FEA06164FEAC30343EABE
:100DE00052734FEAC2025FEA1C1CC0D111F4801F8B
:100DF0000BD141EA00014FF000004FF0004CB6E784
:100E000011F4801F04BF01430020B4F1FD0C88BF22
:100E1000BCF5E06F3FF6AFAEB5EB030C04BFB6EB2D
:100E2000020C5FEA500C50F1000041EB045170BD20
:100E30000EF0004E4EEA113114EB5C04C2BFD4EB4D
:100E40000C0541EA045170BD41F480114FF0000ED1
:100E5000013C90E645EA060E8DE60CEA135594EA4D
:100E60000C0F08BF95EA0C0F3FF43BAF94EA0C0F50
:100E70000AD150EA01347FF434AF95EA0C0F7FF4C5
:100E800025AF104619462CE795EA0C0F06D152EA19
:100E900003353FF4FDAE1046194622E750EA4106FD
:100EA00018BF52EA43067FF4C5AE50EA41047FF40E
:100EB0000DAF52EA43057FF4EBAE12E74FF0FF3C73
:100EC00006E000BF4FF0010C02E000BF4FF0010C44
:100ED0004DF804CD4FEA410C7FEA6C5C4FEA430CBD
:100EE00018BF7FEA6C5C1BD001B050EA410C0CBF0C
:100EF00052EA430C91EA030F02BF90EA020F00206E
:100F0000704710F1000F91EA030F58BF994208BFD4
:100F100090422CBFD8176FEAE37040F00100704791
:100F20004FEA410C7FEA6C5C02D150EA013C07D1E8
:100F30004FEA430C7FEA6C5CD6D152EA033CD3D033
:100F40005DF8040B704700BF8446104662468C462D
:100F50001946634600E000BF01B5FFF7B7FF002860
:100F600048BF10F1000F01BD4DF808EDFFF7F4FF89
:100F70000CBF012000205DF808FB00BF4DF808ED14
:100F8000FFF7EAFF34BF012000205DF808FB00BF37
:100F90004DF808EDFFF7E0FF94BF012000205DF859
:100FA00008FB00BF4DF808EDFFF7CEFF94BF01200E
:100FB00000205DF808FB00BF4DF808EDFFF7C4FF07
:100FC00034BF012000205DF808FB00BF4A0011D2A9
:100FD00012F5001211D20DD56FF47873B3EB625293
:100FE0000ED44FEAC12343F0004343EA505323FA9F
:100FF00002F070474FF00000704750EA013002D114
:101000004FF0FF3070474FF0000070474FEA410249
:10101000B2F1E04324BFB3F5001CDCF1FE5C0DD956
:1010200001F0004C4FEAC0024CEA5070B2F1004FA0
:1010300040EB830008BF20F00100704711F0804FA3
:1010400021D113F13872BCBF01F00040704741F468
:1010500080114FEA5252C2F11802C2F1200C10FA6C
:101060000CF320FA02F018BF40F001004FEAC12350
:101070004FEAD32303FA0CFC40EA0C0023FA02F3F4
:101080004FEA4303CCE77FEA625307D150EA0133CA
:101090001EBF4FF0FE4040F44000704701F000409A
:1010A00040F0FE4040F40000704700BF7BB972B9C9
:1010B0000029BEBF00204FF0004106E008BF002815
:1010C0001CBF6FF000414FF0FF3000F075B8ADF17C
:1010D000080C6DE904CE002909DB002B1ADB00F0B7
:1010E0005CF9DDF804E0DDE9022304B0704740421A
:1010F00061EB4101002B1BDB00F04FF9DDF804E050
:10110000DDE9022304B0404261EB4101524263EB4E
:1011100043037047524263EB430300F03EF9DDF8AE
:1011200004E0DDE9022304B0404261EB4101704775
:10113000524263EB430300F030F9DDF804E0DDE9EF
:10114000022304B0524263EB4303704753B94AB9D8
:10115000002908BF00281CBF4FF0FF314FF0FF30BF
:1011600000F02AB8ADF1080C6DE904CE00F015F9D5
:10117000DDF804E0DDE9022304B07047D0B50C4B84
:10118000002206460F46FFF787FCFFF71FFF0446C5
:10119000FFF708FC074B0022FFF77EFC02460B46D8
:1011A00030463946FFF7C0FAFFF710FF2146D0BDA1
:1011B0000000F03D0000F041704700BF844641EA66
:1011C000000313F003036DD1403A41D351F8043BBF
:1011D00040F8043B51F8043B40F8043B51F8043B11
:1011E00040F8043B51F8043B40F8043B51F8043B01
:1011F00040F8043B51F8043B40F8043B51F8043BF1
:1012000040F8043B51F8043B40F8043B51F8043BE0
:1012100040F8043B51F8043B40F8043B51F8043BD0
:1012200040F8043B51F8043B40F8043B51F8043BC0
:1012300040F8043B51F8043B40F8043B51F8043BB0
:1012400040F8043B51F8043B40F8043B403ABDD21F
:10125000303211D351F8043B40F8043B51F8043BC1
:1012600040F8043B51F8043B40F8043B51F8043B80
:1012700040F8043B103AEDD20C3205D351F8043B50
:1012800040F8043B043AF9D2043208D0D2071CBF1C
:1012900011F8013B00F8013B01D30B880380604645
:1012A000704700BF082A13D38B078DD010F00303BB
:1012B0008AD0C3F10403D21ADB071CBF11F8013B2B
:1012C00000F8013B80D331F8023B20F8023B7BE77A
:1012D000043AD9D3013A11F8013B00F8013BF9D2A5
:1012E0000B7803704B7843708B788370604670473F
:1012F0004FEA410C7FEA6C5C02D150EA013C0AD112
:101300004FEA430C7FEA6C5C02D152EA033C02D103
:101310004FF0000070474FF0010070474FEA410264
:1013200012F5001215D211D56FF47873B3EB625237
:1013300012D94FEAC12343F0004343EA505311F05E
:10134000004F23FA02F018BF404270474FF00000F0
:10135000704750EA013005D111F0004008BF6FF02E
:10136000004070474FF00000704700BF38B50022C2
:10137000002304460D46FFF701FE28B92046294602
:10138000BDE83840FFF7FABE204605F10041FFF7FF
:10139000F5FE404261EB410138BD2DE9F04786463C
:1013A0008C460846089E154674461946002B40F0A8
:1013B000C2808542B2FA82F245D94AB1C2F1200315
:1013C00000FA02FC2EFA03F3954043EA0C0C944019
:1013D0004FEA154EA8B2BCFBFEF8230C0EFB18CC4E
:1013E00008FB00F943EA0C43994528D9EB1808F1AA
:1013F000FF3704D2994502D9A8F102072B44A3EB89
:101400000903A4B2B3FBFEFC0EFB1C330CFB00F083
:1014100044EA0344A04214D92C190CF1FF3304D23E
:10142000A04202D9ACF102032C44241A43EA07403B
:101430001EB1D440002334607360BDE8F087474696
:10144000DDE76346F1E792BB431B01214FEA154EEE
:10145000AFB2B3FBFEFC200C0EFB1C330CFB07F8F9
:1014600040EA0343984562D9EB180CF1FF3004D2EF
:10147000984502D9ACF102002B44A3EB0803A4B2B7
:10148000B3FBFEFC0EFB1C330CFB07F744EA0344E2
:10149000A7424ED92C190CF1FF3304D2A74202D92E
:1014A000ACF102032C44E41B43EA0040C0E7C2F164
:1014B000200320FA03F1954090402EFA03F30343F2
:1014C0004FEA154EAFB2B1FBFEFC0EFB1C10190C1F
:1014D0000CFB07F841EA0041884504FA02F422D9DE
:1014E00069180CF1FF3004D2884502D9ACF1020032
:1014F0002944A1EB08019BB2B1FBFEFC0EFB1C11C1
:101500000CFB07F743EA01439F420ED9EB180CF19D
:10151000FF3104D29F4202D9ACF102012B44DB1B04
:1015200041EA004192E76046E3E76146F7E760463B
:10153000A3E76346B7E7834206D916B900210846F8
:101540007BE7C6E900E0F9E7B3FA83F78FB9834296
:1015500001D3724508D8BEEB020460EB03030120FF
:101560009C461EB9002168E73846FAE7C6E9004CF8
:10157000F8E7C7F1200CBB4022FA0CF41C432EFA0A
:101580000CF120FA0CF3B84001434FEA14490EFA6B
:1015900007F5B3FBF9F81FFA84FE09FB18300B0CB2
:1015A00008FB0EFA43EA00439A4502FA07F240D9D3
:1015B000E31808F1FF3004D29A4502D9A8F10200DD
:1015C0002344A3EB0A0389B2B3FBF9F809FB1833F0
:1015D00008FB0EFE41EA03418E452CD9611808F143
:1015E000FF3304D28E4502D9A8F10203214443EA15
:1015F0000040A0FB0298A1EB0E014145CE464346B8
:1016000002D306D14D4504D2B9EB020E68EB0403B8
:101610000138002EA6D0B5EB0E0261EB030101FAF2
:101620000CFC22FA07F34CEA0303F940C6E9003147
:1016300098E74046C5E74346D9E7000000000000B0
:10164000012870B52CD10C4676F0E2F81A4DA2684C
:10165000D4E90036A3FB05349B1805FB0644174D5F
:1016600044EBE274A0FB0502181A05FB012110A34C
:10167000D3E9002364EB0101FFF718FD4FF01003DD
:10168000EFF3118483F31288BFF36F8F0C4BC3E920
:1016900000019A6084F31188BFF36F8F002070BD42
:1016A0000FF08CF8162203464FF0FF301A6070BD21
:1016B00000CA9A3B0000000000CA9A3BA0860100C5
:1016C00068270024000000002DE9F04F8FB00023B0
:1016D00004240E4608A9054608930D93CDE9094355
:1016E000CDE90B331BF01EF800286BD021460746CE
:1016F00028461AF085FD28461AF0F2FE032835D850
:101700000DF12809B48806F108016B8F022064BA34
:10171000DFF8EC80A4B2D8F848B0E41A18F094F8D6
:1017200006F1180182460220043C18F08DF8CDF82D
:101730001090F37901465846039323467A8852BAAB
:1017400092B2CDE900A1029208212E4A0CF080F855
:101750007B88D8F84C205BBA9BB2934236D028469F
:101760001AF06AFA00200FB0BDE8F08F07A92846EA
:101770001AF068FD044628BB2DF0BAFF079BDFF87E
:1017800088802146C01A0DF128091BA3D3E9002344
:101790000790FFF7DBFC0446A2FB080208FB0321CD
:1017A000A4FB084814A3D3E90023FFF7CFFC174A92
:1017B000031910214846A2FB0323154A9B0C78F01D
:1017C000F5FB9FE7FE200FB0BDE8F08F404674F0B8
:1017D0007BFF10481DF098FB0F481DF0BFF8D8F8AC
:1017E000480000210CF038F90C4A0821D8F84800CC
:1017F0000CF02EF8B3E700BF0076B0100000000038
:10180000C830002424B6090800CA9A3B83DE1B4373
:1018100018B60908E00F0024D40F0024F8DB0908EB
:101820002DE9F04F8FB0002304240E4608A9054689
:1018300008930D93CDE90943CDE90B331AF072FFFC
:1018400000286BD02146074628461AF0D9FC2846C6
:101850001AF046FE032835D80DF12809748806F1E0
:101860000C016B8F012064BADFF8EC80A4B2D8F8C9
:1018700048B0E41A17F0E8FF06F110018246012093
:10188000043C17F0E1FFCDF81090337A014658463A
:10189000039323467A8852BA92B2CDE900A102920C
:1018A00008212E4A0BF0D4FF7B88D8F84C205BBA75
:1018B0009BB2934236D028461AF0BEF900200FB0F2
:1018C000BDE8F08F07A928461AF0BCFC044628BBE7
:1018D0002DF00EFF079BDFF888802146C01A0DF11E
:1018E00028091BA3D3E900230790FFF72FFC044628
:1018F000A2FB080208FB0321A4FB084814A3D3E9B8
:101900000023FFF723FC174A031910214846A2FBC6
:101910000323154A9B0C78F049FB9FE7FE200FB08C
:10192000BDE8F08F404674F0CFFE10481DF0ECFA91
:101930000F481DF013F8D8F8480000210CF08CF87F
:101940000C4A0821D8F848000BF082FFB3E700BF2B
:101950000076B01000000000C830002424B609084A
:1019600000CA9A3B83DE1B4318B60908E00F002427
:10197000D40F0024F8DB09082DE9F04F0C46D0F80D
:101980002011A3B006460B6B154643B10622183151
:1019900005F1200077F09CFC002800F0A28018A937
:1019A0003046D4F860A0D4F88070D5F880803FF03D
:1019B0004FFF002800F089804FF0000941F2883382
:1019C0003B44984500F28D80D5F850B0BBF57A6F56
:1019D00040F3C780236DB3F57A6FACBF00230123BA
:1019E0001493BAF1000FC0F29C8041F28833434453
:1019F0009F4200F2B180B9F1190F00F3AD802B6E58
:101A00004FF0020915933846FEF7CCFFCDE91201DD
:101A10004046FEF7C7FF02460B46CDE916230022DB
:101A20009B4BFFF739F802460B46DDE91201FFF741
:101A3000C3FA002800F0B88009F10A09149B0BB121
:101A4000A9F10209159B3046CDF844801093A3EB11
:101A50000A03CDF83CB008979945CDF81CA094F83E
:101A60002020C8BF0026236DD8BF01260092069310
:101A700094F825308749059394F82430049394F81A
:101A80002330039394F8222094F82130029201939A
:101A9000814BC8BF0B4695F82510804A0E9195F8EA
:101AA00024100D9195F823100C9195F822100B91AC
:101AB00095F821100A9195F82010099103214EF014
:101AC000FBF9304623B0BDE8F08FDDF870B0BBF114
:101AD000000F0BD1DDF86CB0BBF1000F06D1D94679
:101AE0006CE70126304623B0BDE8F08F1D9B42F223
:101AF0000F71189A8B424BD02046ABEB030938F09C
:101B0000CDFBD4F88C20034604F1940162B3CDF8E8
:101B10000090DA46206D0190304644F001FE074601
:101B20004CE72B6E149A159303EB42039A451EDD86
:101B30004046FEF737FFCDE912013846FEF732FF87
:101B40004FF03332564BFEF7A7FF02460B46DDE956
:101B50001201FFF713FA50B10026304623B0BDE85A
:101B6000F08F002314933CE7D4F89020CFE741F2A4
:101B7000883343449F42EFD8B9F1190FECDC1AF1D6
:101B8000550F35DB1AF1500F6FDA4FF002093AE7C3
:101B90006FF47A631A4440F265739A428CBF6FF017
:101BA00058036FF05B03A7E74FF033323C4BDDE99E
:101BB0001601FEF771FF02460B46DDE91201FFF741
:101BC000FBF910B109F1050938E72FA3D3E9002388
:101BD000DDE91601FEF760FF02460B46DDE9120162
:101BE000FFF7EAF938B9B84508D209F1010925E744
:101BF0004FF0010907E709F102091FE70022244B12
:101C0000DDE91201FEF748FF02460B46DDE9160149
:101C1000FFF7D2F910B1A9F10A090FE74FF03332FB
:101C20001F4BDDE91201FEF737FF02460B46DDE9E7
:101C30001601FFF7C1F910B1A9F10509FEE612A3DB
:101C4000D3E90023DDE91201FEF726FF02460B4629
:101C5000DDE91601FFF7B0F910B1A9F10209EDE6CF
:101C6000B84588BF09F1FF39E8E61AF14B0F02DAEF
:101C70004FF00309C7E61AF1460FB4BF4FF004094D
:101C80004FF00509BFE600BF9A9999999999F13FDC
:101C90000000F83FA0600A088C600A08B8600A08D3
:101CA0003333F33F00000000012963D884462DE957
:101CB000F04F8E4685B000293DD031A3D3E90023F3
:101CC0000FF2C409D9E90089CDE9002330A3D3E993
:101CD000002331A7D7E90067CDE9022330A5D5E974
:101CE00000450FF2C40BDBE900AB31A1D1E90001E3
:101CF00031A3D3E90023CCE90C01DDE90001CCE9F3
:101D00001223CCE90E01DDE9020100220023CCF808
:101D1000D0E0CCE910010020CCE90489CCE90667C9
:101D2000CCE90845CCE90AABCCE90023CCE9022395
:101D300005B0BDE8F08F22A3D3E900230FF2880994
:101D4000D9E90089CDE9002321A3D3E9002322A703
:101D5000D7E90067CDE9022321A5D5E900450FF2B7
:101D6000880BDBE900AB22A1D1E9000122A3D3E972
:101D70000023C0E76FF07400704700BFAFF300802E
:101D800011155868874AB48ED89E05C15D9DBBCB9E
:101D9000A78FF9640D2E0CDB07D57C362A299A62B1
:101DA00017DD70305A01599139590EF7D8EC2F15BB
:101DB000310BC0FF67263367A44FFABE1D48B547F5
:101DC0001F6C3E2B8C68059B08C9BCF367E6096A4B
:101DD0006BBD41FBABD9831F3BA7CA8485AE67BBF4
:101DE0002BF894FE72F36E3CF1361D5F3AF54FA569
:101DF000D182E6AD7F520E5179217E1319CDE05B81
:101E0000C1F30A5C2DE9F041ACF2FF35132D024617
:101E10000B460C46064634DC002D20DBDFF8D08074
:101E200048FA05F801EA080C5CEA000C0F462DD0D0
:101E30002DA3D3E90023FEF779FC00220023FFF74E
:101E4000BBF840B1002C03DD4FF480132B411F443D
:101E500027EA0804002621463046BDE8F08122A387
:101E6000D3E90023FEF762FC00220023FFF7A4F869
:101E70000028F0D0002C33DB344300D01D4C00266A
:101E8000E9E7332D06DDB5F5806F26D010461946FB
:101E9000BDE8F081ACF2134C4FF0FF3727FA0CF796
:101EA0003842F3D010A3D3E90023FEF73FFC002211
:101EB0000023FFF781F80028CDD0002C334609DD40
:101EC000142D06D0C5F134050122AA4013449E42C8
:101ED00000D9013423EA0706BDE7FEF727FCD7E760
:101EE00000264FF00044B6E79C7500883CE4377E3E
:101EF000FFFF0F000000F03FC1F30A5C2DE9F04145
:101F0000ACF2FF35132D02460B460C46064632DC7A
:101F1000002D20DBDFF8E08048FA05F801EA080C24
:101F20005CEA000C0F462BD031A3D3E90023FEF767
:101F3000FDFB00220023FFF73FF840B1002C03DA3D
:101F40004FF480132B411F4427EA08040026214642
:101F50003046BDE8F08126A3D3E90023FEF7E6FB77
:101F600000220023FFF728F80028F0D0002C27DB00
:101F700000263446EBE7332D06DDB5F5806F1CD027
:101F800010461946BDE8F081ACF2134C4FF0FF3714
:101F900027FA0CF70742F3D015A3D3E90023FEF785
:101FA000C5FB00220023FFF707F80028CFD0002C44
:101FB00033460CDB23EA0706C9E7FEF7B7FBE1E788
:101FC00024F0004426430DD14FF00044BFE7142D08
:101FD00006D0C5F134050122AA401344B342E9D228
:101FE0000134E7E7054C0026B1E700BFAFF30080FE
:101FF0009C7500883CE4377EFFFF0F000000F0BFB7
:10200000F8B5C1F30A5604460D4617460B463EBBCB
:1020100021F00043034322D02B4B0022FEF73CFD6E
:102020002A4B9F4204460D4637DBC1F30A560B4646
:10203000363EBA1940F2FE718A4219DC002A32DCBF
:1020400012F1350F20DB23F0FF43363223F4E00397
:1020500043EA025120461E4B0022FEF71DFDF8BD4B
:1020600040F2FF729642E4D10246FEF75FFBF8BDF4
:1020700011A3D3E90023ED0F1C4665F3DF7421465D
:102080001448FEF709FDF8BD05F0004343F0D27196
:1020900041F4B731104841F01F0109A3D3E90023EF
:1020A000FEF7FAFCF8BD23F0FF4323F4E0032046DB
:1020B00043EA0251F8BD00BF9C7500883CE4377EBE
:1020C00059F3F8C21F6EA50100005043B03CFFFF5A
:1020D0000000903C9C75008859F3F8C20000000095
:1020E0002DE9F04F016C9FB016461F46CDE90467FD
:1020F0002B9D039049B1426C4A60012393400446F2
:102100008B607FF0ADFB00232364B7F10009B4BFFF
:10211000012300232B60764BBCBF29F00049CDF88A
:10212000149033EA090300F0AA80DDE904340022A8
:10213000184621460023CDE90801FEF715FF804629
:1021400068B12A9A012313602C9B13B12C9A694B16
:102150001360694B0A930A981FB0BDE8F08F1CAB5F
:1021600001931DAB00930398DDE908237FF08AFFFC
:102170005FEA1955824640F09880DDE91C854544A8
:1021800005F23243202B40F38383C3F1400309FA65
:1021900003F905F2124326FA03F349EA0300FEF7B6
:1021A00001FC0123013DA1F1F8711193534B002271
:1021B000FEF7BAFA48A3D3E90023FEF76DFC48A363
:1021C000D3E90023FEF7B2FA064628460F46FEF78B
:1021D000F9FB45A3D3E90023FEF75EFC02460B465C
:1021E00030463946FEF7A2FA06460F46FFF796F844
:1021F00000228346002330463946FEF7BFFE002802
:1022000040F01A83A8EB0508BBF1160F08F1FF3464
:1022100000F28B813A4D05EBCB05D5E90023DDE9D2
:102220000801FEF7ABFE002870D00023002C0BF154
:10223000FF3B1093C0F27E8100230B93BBF1000F94
:102240006ADA0B9BA3EB0B030B93CBF10003CDE9F5
:102250000EB3289B092B4FF0000B65D8052B40F3DC
:102260001C83043B28930025289B023B032B00F290
:102270002386DFE813F060045D04540438042A9ACE
:10228000C9F3130942F20F7359EA060913601CD10E
:102290002C9B002B00F02B861A4B0A9308332C9AA8
:1022A0000A9813601FB0BDE8F08FDDE90812C2F391
:1022B0001303084643F07F51CDF84480A5F2FF3563
:1022C000DDF8708041F4401170E72C9B002B40F04A
:1022D000E7830D4B0A933EE761436F63A787D23FC5
:1022E000B3C8608B288AC63FFB799F501344D33F05
:1022F0000000F07FA91E0A08A81E0A080000F83F87
:10230000A83A090828D50B0834D50B08B8F1000FF6
:1023100040F3608410900B9000230F93289BCDF81E
:1023200038B0092B5C4499D90023CDE92833012525
:102330004FF0FF330C950693039B00215964069BD5
:10234000189303987FF066FA0A90002800F0BD8584
:10235000039B0A9A1A64069B0E2B00F21581002D2E
:1023600000F012810E9A002A40F33B84B24D02F035
:102370000F0305EBC303D3E9008913461511DA05F2
:1023800040F1FA83AD4BDDE90801D3E90823FEF7FC
:10239000ADFCCDE9120105F00F0503277DB1A74E75
:1023A000EB0708D540464946D6E90023FEF774FB03
:1023B0000137804689466D1006F10806F0D1424685
:1023C0004B46DDE91201FEF791FC80468946109BE1
:1023D00043B19B4B002240464946FEF7CFFD002803
:1023E00040F0F1843846FEF7EDFA42464B46FEF7E0
:1023F00053FB944B0022FEF799F9069B0646A1F188
:102400005077002B00F0A9800E9B1993069B129326
:102410000A9B894D49464046CDE914675E1CFEF78C
:102420007DFF129905EBC10353E902120746CDE97E
:102430001612FEF7C7FA02460B4640464946FEF71B
:1024400073F989460C993037DDE916238046FFB2CF
:10245000002900F053847C490020FEF747FCDDE9A9
:102460001423FEF761F90A9D02460B46CDE91423B9
:102470002F7042464B46FEF79FFD002840F09784A0
:10248000CDE91AB4CDF858A0129DDDE914AB0027B0
:102490002AE00137AF4280F2DE846C4B5046594649
:1024A0000022FEF7F9FA694B002282468B4640462D
:1024B0004946FEF7F1FA89468046FEF72FFF0446AB
:1024C000FEF780FA02460B4640464946FEF72CF9D5
:1024D000303406F8014B52465B4680468946FEF78B
:1024E0004DFD002840F0B48442464B46544900203C
:1024F000FEF71AF952465B46FEF740FD0028C8D0A9
:10250000199BDDF858A00A9A374603F1010802E04A
:10251000974200F07C843E4617F8013D392BF7D0F6
:102520000133DBB23B70454675E10123002C10936B
:10253000BFF682AEC8F101030B9300247EE6384655
:10254000FEF740FA42464B46FEF7A6FA3D4B002204
:10255000FEF7ECF80646A1F150773D4B4046494660
:102560000022FEF7E1F832463B4680468946FEF7F8
:1025700023FD002840F05A8440464946324607F180
:102580000043FEF7FBFC28BB1D9B002BC0F2928092
:102590000E9A0E2A00F38E80274D0E9B05EBC30585
:1025A000D5E90034CDE90434299B002B19DA069BC8
:1025B000002B16DC0ED1264B0022DDE90401FEF7CC
:1025C0006BFA02460B46DDE90801FEF7E1FC002844
:1025D00000F02C844FF000090A9E4F46299BDD43F2
:1025E00025E2DDE90445DDE9088922462B4640461F
:1025F0004946FEF77BFBFEF791FE0646FEF7E2F941
:1026000022462B46FEF748FA0A9F0B4602464946E9
:102610004046FEF789F806F1300307F8013B069BB8
:10262000012B00F012830125CDF818A09946DDE9B1
:1026300004ABA8462CE000BFA83A0908803A090874
:102640000000F03F00001C400000E03F000024407C
:102650000000144052465B4620462946FEF746FBE2
:10266000FEF75CFE0646FEF7ADF952465B46FEF706
:1026700013FA08F101080B46024629462046FEF7E8
:1026800053F806F13003C84507F8013B00F0DB8240
:10269000B94B0022FEF700FA0022002304460D4643
:1026A000FEF762FC0028D5D00E9DDDF818A001359C
:1026B0003E46B0E00C9A002A40F0D28000230F9DE5
:1026C0000B9E0C931F4656B1002C08DDA6420B9AB8
:1026D0003346A8BF2346D21A0B92F61AE41A0F9B70
:1026E00053B10C9B13B1002D40F0E88251460F9A74
:1026F00003987FF09DFA8246039801217FF0B4F998
:102700008146BBF1000F40F0B681289B012B40F3BE
:10271000CC810120204410F01F0000F09A80C0F10D
:102720002003042B40F3DA810B9BC0F11C0003440F
:102730000B93064404440B9B002B05DD5146039884
:102740001A467FF0CFFA8246002C05DD49460398F1
:1027500022467FF0C7FA8146109B002B40F0708123
:10276000069B002B40F348810C9B002B40F0A4807B
:102770000E9D0135DDF82880069CDDF80CB00126A1
:1027800007E0514600230A2258467FF073F80136CD
:102790008246494650467EF0B3FAA64200F1300325
:1027A00008F8013BEDDB069A002AC8BF16460A9AD4
:1027B000D8BF012602EB060B0024514601220398E4
:1027C00004937FF08FFA494682467FF003FB00288E
:1027D00040F3E3810A9A02E05A4500F0E9815E463F
:1027E0000BF1FF3B16F8013C392BF5D001338BF888
:1027F0000030DDF80C80494640467FF031F857B193
:102800002CB1BC4203D0214640467FF029F8039802
:1028100039467FF025F8039851467FF021F80023D0
:1028200033702A9B1D602C9B002B3FF494AC0A98BC
:102830001E601FB0BDE8F08F5846FEF7C3F8324661
:102840003B46FEF791FB00287FF4DCAC0BF1FF3B2D
:10285000D8E41C230B9A1A440B921E441C446AE7CA
:10286000289A012A40F3A981069A0F9B551EAB4274
:10287000C0F26B81002AA3EB050580F2DD820B9B81
:10288000069A9E1A039801217FF0EEF807461AE790
:10289000C3F1200306FA03F081E40125E4E439469C
:1028A000002303980A227EF0E5FF189B002B0746C1
:1028B00040F3EF820E950693002E00F33F81BBF1AB
:1028C000000F40F0DF81B8460A9E069C731E1C4430
:1028D000049B0C9403F00103039C0F93494650465C
:1028E0007EF00EFA3946834650467FF073FA424630
:1028F0004946054620467FF08DFAC26801460BF135
:102900003003002A3AD1089050460B937FF062FAC8
:102910000899069020467EF0A3FF069A0B9B002A9A
:102920005AD1289A1AB90F9A002A00F09A82002DDB
:1029300045DB0C9AB346B2420BF8013B00F0B9817B
:10294000514600230A2220467EF094FF47458246E6
:1029500039464FF000034FF00A02204636D07EF091
:1029600089FF4146074600230A2220467EF082FF67
:102970005E468046B2E700BF0000244003980693FD
:102980007EF06EFF002D069B06DB049A289902F06C
:1029900001020D432A432AD1514601220398049390
:1029A0007FF0A0F9494682467FF014FA0028049B84
:1029B00040F3E880392B00F02F820BF131030E9D9C
:1029C00006F8013B3C460135474612E77EF052FFD0
:1029D0005E460746804681E7002DC0F27D82289939
:1029E0000D430F990D4300F07782002AA1DD392BAA
:1029F00000F012820133E2E7289B022B7FF7B4AE8E
:102A0000069B002B40F01D814946052203987EF06D
:102A100031FF0146814650467FF0DCF9002840F343
:102A200010810A9E0E9D312306F8013B0135039863
:102A3000494601357EF014FF002F7FF4E8AEEAE648
:102A4000494650467FF0C6F90028BFF689AE514688
:102A5000002303980A227EF00DFF0E9B5D1E0C9B47
:102A60008246002B7FF41BAF189B002B40F3FF81A5
:102A70000E9D06937EE601465A4603987FF0D8F8ED
:102A8000289B012B81466CDD4FF0000BD9F81030EC
:102A900009EB830318697EF095FFC0F1200039E649
:102AA000924B0A930333FFF7FABB049B002B7FF48E
:102AB00030AEDDE90412C2F31303002B7FF429AE1C
:102AC0008B4B134023B10B9B01330B930134012338
:102AD000BBF1000F40F0AE819B461AE63FF42BAEEF
:102AE000C0F13C03B6E601230C93299B0E9A1344D4
:102AF00018930133012B1E460693B8BF0126172EEB
:102B000040F3D581012204235B0003F11400B0429D
:102B1000114602F10102F7D9039B596411E4012324
:102B20000C93299B002B33DD189306931E46E6E792
:102B300000230C93D9E700230C93F2E7394603985E
:102B400032467FF0CFF80746B9E60F9B069A0F95FD
:102B5000EB1A9B440B9B1E46134414440B93002515
:102B600090E6049B002B8FD1DDE90401C1F3130330
:102B70000A46002B88D1A3E7DDE908230227CDE927
:102B800012230BE47FF41BAFDA077FF518AF11E7D0
:102B9000012329930693FFF7CFBB03D1049BDB07E7
:102BA0003FF518AE5E461BF8013D302BFAD020E60B
:102BB0000A9A3123013513701BE6119A002A00F09E
:102BC000F98003F233430B9A0F9D16461A441C44B6
:102BD0000B9257E6C8F1010304460B931090FFF7E0
:102BE0009BBB00F0EB800E9B424D5E4206F00F0354
:102BF00005EBC303D3E90023DDE90801FDF74CFF32
:102C00003511CDE9120100F04D813B4E0023022722
:102C100080468946E80709D5D6E90023404649465B
:102C2000FDF73AFF01378046894601236D1006F112
:102C30000806EFD1002B7FF4CAABDDE91289FFF75C
:102C4000C6BB0A9ECAE4DDF818A00E9D02460B46DC
:102C5000FDF76CFD02460B46CDE906230135DDE9A3
:102C60000423A846FEF7A8F940B9DDE90423DDE90D
:102C70000601FEF779F918B1F10701D50A9A4AE47D
:102C80003E46C8E5796803987EF0C4FD05460028F5
:102C900000F026813B6902339A0007F10C010C30E9
:102CA000FEF78CFA0398294601227FF01BF8804634
:102CB0000AE60E9D3C46013547467EE5DDF80C8070
:102CC00039462A4640467EF0B3FF52460146074643
:102CD00040467EF0F7FE5146824640467EF0C0FDFB
:102CE0000F9B5B1B0F933FF407ADFFE434D50B083C
:102CF0000000F07FA83A0908803A0908DDE91401CC
:102D0000FDF7CAFE0A9B1F70129B012BCDE90C0137
:102D100000F0C680129F0A9BCDF844B01F447C4B44
:102D2000002240464946FDF7B7FE89468046FEF739
:102D3000F5FA8346FDF746FE0BF1300B02460B46D3
:102D400040464946FDF7F0FC06F801BBB742804615
:102D50008946E4D1DDF844B06E4B0022DDE90C0178
:102D6000FDF7E4FC02460B4640464946FEF724F9CF
:102D7000002867D1DDE90C2366490020FDF7D4FC6B
:102D800002460B4640464946FEF7F8F848B91D9BF7
:102D9000002BFFF693AC0E9B0E2B3FF78FACFFF78B
:102DA000FCBB3E46013F16F8013C302BF9D0199D83
:102DB000013530E51C9BC3F1360304E7DDE90889E2
:102DC0000227FFF704BB069B002B3FF4B8AB189B10
:102DD000002B7FF7D9AB0E9A1293013A4C4B199204
:102DE000404600224946FDF757FE80468946781C3A
:102DF000FDF7E8FD42464B46FDF74EFE464B0022EE
:102E0000FDF794FC0646A1F15077FFF701BB08F1EE
:102E100001083123FFF786BB0E9D0A9AB34639237A
:102E20003C460BF8013B01354746D8E44FF000091A
:102E30004F46F6E59B4629E60B9B1E461344144479
:102E40000B931FE5199B0A9A03F10108FFF763BB77
:102E5000DDF858A0ABE7DDE91AB4DDF858A0FFF7BC
:102E600093BB392BD8D0002D3FF7A7ADA7E5289B02
:102E7000022B0ADC189B069349460E9D7DF040FF0D
:102E80000A9A00F1300313708DE4189B06930E9597
:102E9000B6E5289B022BF8DC189B0E9506930BE5F4
:102EA000374659E7DDE912890227FFF790BA039BFD
:102EB00000215964FFF745BA039B00255D6429464C
:102EC00018467EF0A7FC0A90A8B9144B14480022BB
:102ED0004FF4D57175F0DAFD002A7FF770AD5BE530
:102EE0000E4B0F482A4640F2EA2175F0CFFD0D4BFC
:102EF0000A93FFF730B9039B0A9A1A644FF0FF3325
:102F00000122299518930C920693FFF73DBB00BF51
:102F1000000024400000E03F00001C4038D50B08B2
:102F20004CD50B0828D50B082DE9F04F1C46B04BAB
:102F30009FB0002583461868079288461A95089026
:102F4000FDF7BEF9002181460020CDE9040142468B
:102F50001992174612F8013B2D2B5FD801A151F8A9
:102F600023F000BF3B3100081D3000081D30000871
:102F70001D3000081D3000081D3000081D300008FD
:102F80001D3000081D300008512F0008512F000887
:102F9000512F0008512F0008512F00081D30000844
:102FA0001D3000081D3000081D3000081D300008CD
:102FB0001D3000081D3000081D3000081D300008BD
:102FC0001D3000081D3000081D3000081D300008AD
:102FD0001D3000081D3000081D3000081D3000089D
:102FE0001D300008512F00081D3000081D3000085A
:102FF0001D3000081D3000081D3000081D3000087D
:103000001D3000081D3000081D3000081D3000086C
:103010006D3700081D300008813700080022099232
:10302000302B00F0958000220A922F2B1C4640F294
:10303000F5844FF0000A38465646554613E00130F5
:10304000082D1990C8BF0AEB8A0A0478C6BF03EBA3
:103050004A03A3F1300AA2F130062F2C05F1010535
:10306000234640F3B58006EB8602392C03EB42027F
:10307000E5DD08994A4677F031FB0346002878D110
:1030800019990A464944199112F80940002D40F057
:103090007185302C40F055850A461346013219924D
:1030A0001478302CF9D0C1F101010B44A4F13102A4
:1030B000082A36D8199F03F101090023A4F1300E24
:1030C00001253C46089306EB86060EEB46060023D8
:1030D000621C19926478A4F13001092900F22B8353
:1030E000199C01338E460029F2D0012B08BF05F14F
:1030F000010C00F0D88603EB050C0CF1FF3003E067
:103100005600A84200F0CF86082D06EB860205F196
:103110000105F5D9102DDCBF0AEB8A0A4FEA4A0AED
:10312000EFE7652C40F02F830022089291464FF084
:10313000010C0A9A1A4340F01783079B00260027C8
:103140000BB1C3F80080304639461FB0BDE8F08FA0
:103150007B7803F0DF03582B00F01A8401371997AE
:103160003B78302BFAD0002B00F0C68201220A9265
:103170005BE70023089599469C46652C3ED0452C7C
:103180003CD000220C92002D40F086800A9A1A430F
:1031900040F0B282BCF1000FCFD1692C00F08284E4
:1031A00000F3C583492C00F07D844E2CC5D1114914
:1031B00019A87FF073FE0028BFD0199B1B78282B1D
:1031C00000F03D850C487FF07BFF06460F4695E2F8
:1031D00008994A4677F082FA03460028C9D1199A1D
:1031E000089502EB0901199112F80940994672E716
:1031F000ECD70B08B46B0A08F8DB0908002D98D04F
:10320000DDF8648008F10102199298F801402B2C36
:1032100000F094822D2C00F0818200220B92A4F108
:103220003000092800F28282302C199A0AD101322A
:1032300019921478302CFAD0A4F131010829A0D8C1
:10324000A4F13000511C199154782F2C40F3F783CE
:103250008E460C9708E0013119919EF801402F2C01
:10326000A7F1300006DD8E4600EB8007392C04EB19
:103270004707F0DD891A08290C9F40F3E08344F6E4
:103280001F620C920B9A002A3FF47DAF0C9A5242B7
:103290000C92002D3FF47AAF089A1346002A08BF1B
:1032A0002B4630460893FDF77DFB0B460246CDE9E1
:1032B00004230C9B102DA3EB09032C46A8BF10245C
:1032C000092D0B9316DD4E4B03EBC40353E9122378
:1032D000FDF7E2FBCDE904015046FDF763FB024632
:1032E0000B46DDE90401FDF721FA0F2DCDE90401BC
:1032F00000F3AB810B9B002B00F033820B9B40F360
:103300005D82162B40F3A2830B9AC5F125039342ED
:1033100080F21A842C1B144414F00F000AD0384990
:1033200001EBC001DDE90423D1E90001FDF7B4FBA5
:10333000CDE9040134F00F0344D0B3F59A7F00F3D4
:103340006383102B2F4A4FEA231440F32285DDE9D3
:10335000040100230A9790469A46174614F0010F7D
:103360000AF1010A4FEA640404D0D8E90023FDF70A
:1033700093FB0123012C08F10808EFD13A460A9F7C
:103380000BB1CDE90401059BA3F1547302EBCA0A0A
:103390000593DDE90423DAE90001FDF77DFB1A4B13
:1033A000CDE904010B400A4618498B4200F22C83F8
:1033B000A1F580118B4240F23D8415494FF0FF3357
:1033C000CDE9043100230A93089A00962B4639462A
:1033D00058467EF09FFA1590002800F015830B9A4E
:1033E0000C9B002AA9EB0303A8BF002310934FF006
:1033F000000A22EAE273CDF820A01493E3E000BFB4
:10340000A83A0908803A09080000F07F0000A07C73
:10341000FFFFEF7FD21A1F2AA4EB020400F34A82B7
:10342000012393401E4600250A9BA0444C44A1451D
:1034300098444B46A8BF23464345A8BF4346002BAC
:1034400004DDE41AA8EB0308A9EB0309109B002B89
:1034500000F3D681002C00F3EC810B9B002B00F3D2
:103460001F82B8F1000F00F30F82B9F1000F08DDE1
:1034700051464A4658467EF035FC8246002800F008
:103480000C821A993A4658467EF0C4FC08900028EF
:1034900000F00382089A0023D1681191D36051464D
:1034A0007EF098FC0028C0F2FB83DDF8149000F059
:1034B0006E83089851467EF043FE00224FF0804311
:1034C00004460D46FDF764FD002800F08981119B3C
:1034D000002B40F0FB81049B002B40F08682C9F357
:1034E0001303002B40F02782AD4B002220462946D3
:1034F000FDF744FD002840F04183AA4B20462946B1
:103500000022FDF7C9FA03460C46CDE9123401F159
:1035100000430E900F93DFF89082A44B09EA08084D
:103520009845DDE90E4500F0D8810A9B1BB3B8F140
:10353000D46F20D898A3D3E90023DDE91201FDF769
:1035400027FDA0B1DDE91201FDF740FD012838BFDC
:103550000120FDF727FA119BCDE91201002B40F065
:10356000B58201F1004316901793DDE9164505F188
:10357000D663A3EB0805DDE90C017EF0FDFC0246F5
:103580000B4620462946FDF787FADDE90C23FDF7B7
:10359000CDF8CDE904010C460A9B23B9824B2340A8
:1035A000984500F0D1811A9958467EF059F939466C
:1035B00058467EF055F9514658467EF051F9089923
:1035C00058467EF04DF9159C584661687EF022F908
:1035D0000746002800F061812269023204F10C01E3
:1035E00092000C30FDF7EAFD1CAB01931BAB00937E
:1035F000DDE904345846CDE90C341A4623467EF002
:1036000041FD1A90002800F01D81012158467EF0EE
:103610002BFA8246002800F040811B9B002BC0F251
:103620002D81109ADDF8508003EB02090A9A1C9C48
:103630009B1A23445E4A013B9342C4F13604FFF6D1
:10364000E9AE012300251E46EEE60B9B2C1B1C4415
:10365000002C3FF761AE3FF4B5AE644214F00F02A8
:103660000AD0544B03EBC203DDE90401D3E9002384
:10367000FDF73CFBCDE9040124113FF4A3AE1F2C60
:1036800037DC14F01003DDE9040118BF6A23DFF80A
:1036900028810A930023E20704D5D8E90023FDF727
:1036A000FBF90123641008F10808F4D10BB1CDE94E
:1036B00004010A9BA3B1DDE90401C1F30A52C2F17E
:1036C0006B03002B0ADD1F2B40F380830020342B7B
:1036D000049040F383834FF05C7305936A230A934D
:1036E000DDE9040100220023FDF73EFC00283FF441
:1036F0006BAE2223CBF8003000260027079A0AB1D0
:10370000199B1360099B002B3FF41DAD07F100438B
:103710001F46304639461FB0BDE8F08F01220B929C
:1037200008F10202199298F8024078E50022CDF8DB
:1037300064800C9227E54FF0010C1EE500220B92ED
:10374000EEE71C9A04921D9A03F2334322F480128E
:1037500042EA03530593200742BF059B43F0004311
:103760000593DDE90467C9E7002549E500230993CE
:103770007A1C19927B78002B3FF4DFAC17464FE49C
:1037800001230993F4E7452C3FF4CEAC4FF0010C34
:10379000FCE400BFAFF300800000C0FFFFFFDF418B
:1037A0000000F03F0000E03F0000F07F0000E07FFD
:1037B00002FCFFFFA83A0908703B09081633FFF620
:1037C00044AF0C9BA9EB0302AD4B03EBC203DDE955
:1037D0000401D3E90023FDF789FA06460F468DE779
:1037E000A84B204629460022FDF756F9119BCDE94A
:1037F0001201002B65D101F100430E900F938AE670
:1038000051461A4658467EF013FA8246002844D0A4
:1038100001461A9A58467EF055F900283DD011907D
:103820001A9958467EF01CF8119B1A93002C7FF7CA
:1038300014AE1A99224658467EF054FA1A9000287F
:103840007FF40BAEB946054622238F4FCBF80030EC
:103850000026294658467EF003F8494658467DF032
:10386000FFFF514658467DF0FBFF159958467DF005
:10387000F7FF089958467DF0F3FF3FE7149ADDF80B
:103880004090A2EB0308D1E63946424658467EF006
:1038900029FA074600287FF4E8ADB9461A9DD3E718
:1038A0003946149A58467EF0C3F9074600287FF43B
:1038B000D8ADF2E7754AD31A012202FA03F516468B
:1038C000B2E5DDE91234CDE90E3424E6704C002374
:1038D000CDE90E34CDE912341DE6A9F154730593F8
:1038E000DDE90445204629467EF046FBDDE90E234E
:1038F000FDF7D2F82B462246FCF718FFDFF8889137
:10390000644B01EA09099945CDE9040140F282803E
:10391000DDE90C0103F15473994202D106460136E8
:10392000BBD05D4A4FF0FF33CDE904323BE66E2C4D
:103930003FF43DAC01E4594C0023CDE90E34544C26
:103940000023CDE91234E6E5DDE91256284631467A
:10395000FDF70CFDFDF772F80B460246314628468E
:10396000FCF7E2FE119D049BC4F313041D432C439A
:103970008046894627D13CA3D3E90023FDF7FEFA10
:1039800000283FF410AEB9461A9DDDE9046760E7F0
:10399000099B01931AAB02940093414A1BAB19A9EE
:1039A00058467EF08BFF10F0070504463FF4A4AEA6
:1039B000062D40F09080079B0BB101371F60002659
:1039C0000027FFF7C0BB2AA3D3E90023FDF7D6FAEF
:1039D0000028D8D128A3D3E9002340464946FDF763
:1039E000EBFA00283FF4DFADCDE7049B012BA2D119
:1039F000B9F1000F9FD1B9461A9C22232546CBF876
:103A000000300026002724E72223CBF800301E4F89
:103A1000002673E601F154740594BDE508994A4601
:103A2000384676F05BFE002800F0818000239C463B
:103A300008939A461E4699461D46FFF7A0BB44F6DA
:103A40001F629042A8BF10460C901BE40B980C49D3
:103A500001EBC001DDE90423D1E90001FDF71CF809
:103A600006460F464AE600BF9535A094FFFFCF3FBC
:103A70009535A094FFFFDF3F35E5AF350000E03F0F
:103A8000A83A09080000E03F0000F07FE2FBFFFFDA
:103A90000000F03FFFFF9F7CFFFFEF7F0000F0BFC3
:103AA00060D60B08994919A87FF0F8F900283FF46F
:103AB00044AB199B9649013B19A819937FF0EEF985
:103AC0000028A4D1199B01331993A0E7DDE9123432
:103AD000CDE9163449E51A9A3AB135211CA87EF091
:103AE00059FB1A9958467DF0BBFE013D1B9B042DE6
:103AF0003FF631AE01A252F825F000BF433700086F
:103B0000253B00081F3B0008113B00084337000815
:103B10004FF0FF336FF00045CDE904351BE67D4BD8
:103B2000059318E61C9B04931D9B059313E61999B6
:103B30000B464944199113F8094006468246FFF79F
:103B4000A8BA0023FFF7B2BA734CC5F10F0504EB16
:103B5000C501DDE90423D1E90001FCF79DFF0B9BC2
:103B60005D1B04EBC504D4E90023FCF795FF064672
:103B70000F46C3E508958146FFF7ADBA674C0023B1
:103B8000CDE90E34664C0023CDE91234C3E411981C
:103B900064494B46B446B946AE46DDE90C67C3F30B
:103BA000130200285ED08A4200F0F780002D38D141
:103BB000049A1CEA020F37D03046394604937EF04F
:103BC000DBF90A9B04460D46002B00F02281049B82
:103BD000C3F30A53C3F16B03002B40F35A811C0556
:103BE00004F17F53002203F54013FCF755FF024612
:103BF0000B4630463946FCF799FD1A9C06460F469F
:103C0000494B304639460022FCF746FF0B4603433A
:103C100008BF2223254606460F4608BFCBF80030D2
:103C200017E61EEA030FC7D11A9C0A9B2546002BF4
:103C3000E6D10EE602F154730593FFF7C3BB3B498F
:103C400019A81CAA7FF044F905287FF4BBAA1D9B84
:103C500043F0FF4343F4E00305931C9B0493DDE929
:103C600004674BE5002A63D1DDE904452246002CB8
:103C700040F0A4800A9A002A40F0DE8025F000443B
:103C8000240D2405A4F580146FEA14536FEA03533E
:103C900005934FF0FF330493DDE904671A9DD8E5DF
:103CA000DDE90401119B0343B946DDE90C67BBD193
:103CB000C1F31303002BB7D121F00044240D2405D8
:103CC000B4F1D66FA046AFD9089A536913B91369F6
:103CD000012BA9DD0899012258467EF003F85146D0
:103CE00008907EF077F800289EDD0A9B002BC9D053
:103CF000A8F580136FEA13536FEA035305934FF04F
:103D0000FF330493DDE904671A9C79E740D60B087A
:103D100044D60B080000F07FA83A09080000E0BF75
:103D20000000E03FFFFF0F00000050394CD60B08A9
:103D3000002D46D1049A1CEA020F3FF475AF3046BD
:103D4000394604937EF018F90A9B002B00F0888016
:103D5000049BC3F30A53C3F16B03002B40F3B480FD
:103D60001C0504F17F53002203F54013FCF794FE79
:103D700002460B4630463946FCF7D6FC00220023AB
:103D800006460F46FDF7F0F800287FF435AE1A9C82
:103D900036E74FF0000AFFF7F6BADDE904010A9AA8
:103DA00004461ABB024601326CD0BEF1000F7FF40C
:103DB00038AF14EA0C0F3FF437AFFDE6BEF1000F49
:103DC000B9D01EEA030F3FF42FAFB8E74FF0FF3230
:103DD00002FA03F3049A1A4004927FE4C2F14B0200
:103DE0004FF0FF3393400B40059377E4384A1A4075
:103DF000B2F1D46F17D9611CD7D136498B423FF449
:103E00004DAD02F58013059300230493DDE90467AB
:103E10000AE7304639462B462246FCF787FC1A9DB6
:103E200006460F4615E5100DC0F16B004FF0FF314F
:103E300081408C42B9D1E4E7DFF8948003EA0808B6
:103E4000B8F1D66F3FF654AF1A9DB8F15C7F2C469F
:103E50003FF6D6AE2223CBF8003000260027F8E448
:103E600002460B4630463946FCF75EFC1A9C00229F
:103E7000002306460F462546FDF776F800283FF456
:103E8000E8ACBAE5134A93423FF408AD01321A4058
:103E9000B7E73046394622462B46FCF747FC1A9CCA
:103EA00006460F46ACE6082D994402DC6546FFF74E
:103EB0000AB9BCF1100FDCBF0AEB8A0A01EB4A0A0F
:103EC00065460023FFF704B902460B4652E700BFE0
:103ED0000000F07FFFFFEF7F0C4A0D4B0D490E48AD
:103EE00010B51268A3FB0232920C01F0C3FB0B4821
:103EF00071F066F8044612F03DFC12F051FC0849DE
:103F0000204626F08DF9002010BD00BF741100245A
:103F100083DE1B43983B0908A83B0908D03B0908EE
:103F2000D83B0908B3B18446084610B502F1FF3EFC
:103F30000EEB03041EF8012F0823504000F001028D
:103F400040088CEA000102B188B2013BF6D1744509
:103F5000F0D110BD0846704710B500F03BF90C4C8D
:103F600000234FF0FF3101228161C1610949C0E99D
:103F70000434094CC0E90022C0E902330A60074852
:103F800007492260074A03600B60136010BD00BF41
:103F9000F8DB0908F0060024F4060024404300245E
:103FA0003C430024384300242DE9F04F85B080467F
:103FB0008946164600AF00F00DF9C36804463BBBC6
:103FC0004269137823B302F1010BC0F814B092F8E0
:103FD00000A0C0F808A05146304676F09FF8BAF12C
:103FE0003A0F71D0B0FA80F1490900286CD04078BE
:103FF0003A2865D021619BF80030002B00F09F80AB
:10400000204600F0CBF8A0681437BD46BDE8F08F1D
:10401000656800234545E360FD6059F8250080F29E
:10402000A580431C636101782D2940F09F8000F139
:10403000020BC4F814B090F801A0BAF12D0FC4F827
:1040400008A01DD0BAF1000FC5D1504B30467960A1
:104050006361BB6076F062F87968002800F09180B7
:10406000A1603046796076F059F87968002840D030
:1040700043783A2B11D0C4F810A001356560BFE732
:1040800081780029A7D10135404B204665606361E6
:1040900000F084F84FF0FF30B6E78A46D7F808B052
:1040A0009BF8000028B90135A845656026DD59F860
:1040B00025B00135BB68C4F810B0636165609FE747
:1040C000324B6568BB60EBE79BF80030002B4AD0B1
:1040D000236833B133783A2B03D02D4803685A074D
:1040E0002FD1204600F05AF83F201437BD46BDE8D6
:1040F000F08F8A46FB6801336360E9E7BB68636160
:1041000035783A2D38D02368002BEAD0204D2B6823
:104110005B07E6D06E4688B06B4603211A46DFF88F
:1041200074C0C3F818A0C3F814C042F8101F4FF4AD
:10413000C2510346284603F0AFFDB546D1E7656896
:104140009BE76D4688B06B46134E03211A46C3F8B1
:1041500018A05E6142F8101F00234FF4C25103F013
:104160009BFDAD46BDE76368FB60C3E7074B204698
:10417000636100F013F88DE7204600F00FF8284641
:1041800042E7204600F00AF884E700BFF8DB0908A0
:1041900074130024083C0908F03B090830B4056892
:1041A000074C084A25604468074B146007490269B8
:1041B000D0E902541D60064B0C601A6030BC704799
:1041C000F4060024F0060024404300243C4300246D
:1041D0003843002410B572F0C9FF084C084B05E0C5
:1041E0009A683033D2F82C13814203D0A342F7D31C
:1041F000044810BD02F13C0010BD00BFF8390808AA
:10420000C8390808D00600242DE9F0430F1A561AC1
:104210009C460D4697FBF6F306FB13738BB33446AF
:10422000194694FBF3FE03FB1E430C46002BF7D10B
:10423000121A002992FBF1F421DD002C01EB050993
:10424000A8460CEB850E1ADD2A46DEF80010002089
:10425000AA4200F10100ACBFD21B921984425CF863
:1042600022304CF822101946CEF80030F0D108F177
:1042700001080EF1040EC84501D04246E5E7BDE84D
:10428000F0833146D4E700BF2DE9F04F8DB0824670
:1042900000AF4669BB62036879607A61BB613BB17C
:1042A00013783A2B04D0A24B1B68022B40F2CC802F
:1042B000A04B3B61DAF804303D213046FB6001330E
:1042C000CAF80430BB6075F029FF0146002800F0F1
:1042D000AC80841B0131BD6AD5F80080B8F1000FB5
:1042E00047D03B6E4FF0000B4FF0FF3903F0040353
:1042F0007B62FB6D03F00103C7E907A1FB62C246C5
:10430000D84611E07B6A33B9BB6A696803EB0913CD
:104310005A68914245D04FF0010855F810AF0BF1A3
:10432000010BBAF1000F1BD022465146304676F001
:10433000D5F90028F1D15046FBF7C2FFA0425DD06D
:10434000012C02D1FB6A002BE7D1B9F1FF3FD9D193
:1043500055F810AFD9460BF1010BBAF1000FE3D1BC
:104360004246D046D7E907A132BBB9F1FF3F40F042
:104370009980FB6D002B40F00681BB694BB17B69D6
:104380001B783A2B05D06C48036813F0060F40F0F9
:10439000E5800023CAF808303F203437BD46BDE829
:1043A000F08FA9689A689142B5D1DB68EA689A42B1
:1043B00018BF4FF00108B0E7BB69002BE9D07B695B
:1043C0001A783A2AE5D05C48026812F0060FE0D06D
:1043D0006D468AB06946594A3B690E624A620A468E
:1043E000574EC1E90634574C4E6142F8104F4FF416
:1043F0004251434603F050FCAD46CAE7D7E907A156
:10440000BB6A03EB0B18D8F80430ABB909BBBB6D22
:104410000BB1C3F800B0D8E90230002BBDD0186052
:1044200034370020BD46BDE8F08FF8623046FBF718
:1044300047FFF96A04464EE75A1E012AE7D80029C9
:1044400032D0CAF81010E2E73F4A52F823303B61FD
:1044500030E7BA69E2B17A6912783A2A18D0364858
:10446000026812F0060F13D06D468AB069463A69A9
:104470000E62C1E90624354C0A464C612F4C4C6251
:10448000304942F8101F4FF4425103F005FCAD468D
:10449000D8F80830002B7FF47CAFD8F80C30CAF87D
:1044A000083079E7CB46ABE7012BB0D1FB6802338C
:1044B000CAF80430D7E9013253F82230CAF8103074
:1044C000D8F80420012AA2D1002BA0D1BB69E3B106
:1044D0007B691B783A2B18D01748036813F0060F36
:1044E00013D06C468AB06B46194D3A695D61194D1F
:1044F000C3E906261D621A46174B42F8103F0B46C9
:104500004FF4225103F0C8FBA546D8F80830002B21
:104510003FD00022DAF80430CAF80820013BCAF87C
:1045200004307B6918783A287FF436AF35E700BF4E
:10453000F8060024F8DB09087413002400020204C2
:10454000343C090805000002E03C0908543C090815
:10455000803C090800020103040000026C468AB096
:104560006B463A690C490D4DC3E906260C4A5D615C
:104570001A621A4642F8101F4FF42251FB6D03F0E5
:104580008BFBA54605E7FB684FF0FF30CAF8043007
:1045900003E7D8F80C20BDE704000002A43C09089A
:1045A000000201032DE9F04F87B004AFD7F838803F
:1045B0007B60002B00F0C5801B7804460E46154634
:1045C0002D2B00F0C7802B2B79D06368002B6AD18C
:1045D00001212361E16061604FF0FF334FF000097A
:1045E000DFF864B208F0020AC4E90633F1B1626888
:1045F000C4F80C90B24280F2B08055F8221061618C
:104600000B782D2B75D0C4F814B0BAF1000F40F020
:10461000B28018F0010F00F09480A069411C00F0F6
:104620009780E1694B1C53D10132626063691A784B
:10463000002ADCD03A6B62B1626855F822209A42B7
:1046400007D019782D2900F0288118F0040F40F0C8
:10465000D98003F1010A78683B60C4F814A093F88C
:104660000090494675F05AFDB9F13A0F3B6800F0E9
:10467000A580B9F12D0F00F08A80002800F09E80FF
:10468000396B427829B1B9F1570F02D13B2A00F0BA
:10469000E3803A2A00F084805B78002B53D1636872
:1046A000013363604FE00023E1682361002993D167
:1046B0004FF00009DFF890B108F0020A96E728F001
:1046C00001087B6801337B606368002B80D0EAE7D8
:1046D0002B46FFF799FDA069E2694FF0FF3C636844
:1046E000121AE168581CC4F81CC09B1A6060A361D0
:1046F0007CE74B78002B86D0A069431C03D0E3698C
:10470000013300F09A804B1C636191F801C0BCF149
:104710002D0F8FD1897800298CD14B4B0132E16963
:1047200063614B1C626021D02B46FFF76DFD63680F
:10473000D4E90612521A9B1A63604FF0FF33C4E9A2
:1047400006334FF0FF3948460C37BD46BDE8F08FC1
:10475000A26169E748F00208B3E7D4E906013A4BE1
:104760004E1C6361E0D1451C18BF60604FF0FF3301
:10477000C4E90633E5E7531C4FF001090C374846FE
:10478000636055F822302361BD46BDE8F08F5A784A
:10479000CAB9002800F0888042783A2A7FF47FAFB7
:1047A000002222615B786268002B00F08080C4F8F0
:1047B00010A0254B013263616260C4E75B7813B9D6
:1047C0006368013363602368BBB17B681B783A2B55
:1047D00013D01E48036813F0060F0ED06D4688B044
:1047E00004AA1B4BC2E90539032342F8103F0023FA
:1047F0004FF4C45103F050FAAD46C4F808904FF09E
:104800003F09A0E7134B00223A291A604AD0786882
:1048100075F084FC003818BF01202946CDE9010855
:10482000D7E90C32204600927A68FFF72DFDB0F1EF
:10483000FF3F81462ED163690BE7E2614B78002B85
:104840007FF461AF0B46F5E6F8DB0908741300242A
:10485000C03C0908F80600245B78002B36D1636859
:1048600001339E4263602EDC3D4A2368626143B19E
:104870007B681B783A2B04D03A48036813F0060F84
:104880004BD15723A3607B681B783A2BB7D14FF0ED
:104890003A0958E7324B636155E7013301226361FE
:1048A000314B1A600020B8E7002A8CD149E78178A3
:1048B0003A293FF47EAF01329642626018DD55F826
:1048C0002230236175E755F823306361264B0220BF
:1048D0007A682946186000203B6BCDE901087D6BA2
:1048E00020460095FFF7D0FC1D4B814663612AE707
:1048F0001B492268616142B17A6812783A2A04D071
:104900001848026812F0060F18D17B68C4F80890A6
:104910001B783A2B7FF473AFB9E76D4688B004AAD1
:10492000124B536157239361032342F8103F002336
:104930004FF4C45103F0B0F9AD46A2E76D4688B01C
:1049400004A90A4E0A46C1F818904E61032142F8A4
:10495000101F4FF4C45103F09FF9AD46D5E700BFD7
:10496000F8DB090874130024F8060024083C090841
:104970002DE9F041044684B00E4617469846FFF7ED
:1049800029FC0A9B214601240546324601930294E4
:104990003B46CDF80080FFF705FE04462846FFF7AA
:1049A000FDFB204604B0BDE8F08100BF2DE9F04FCB
:1049B0008946C2F3C20191B0840701F101011A9D39
:1049C000049102F00401069140F018820646041D8D
:1049D000002800F0DA81B9F1070F40F2388102F0C7
:1049E000020203F1FF3A4FF0FF38012705929B4680
:1049F00000220192079202920EB1C4F800B0049B0B
:104A0000002B40F39981059B002B40F0D5819AF84B
:104A1000012004340AF1010A002A4ED0C6F108032D
:104A20004FF0040C00214FF6DA700393634600291F
:104A300000F04B817A2A3BD84B2A40F211814C3A44
:104A40002E2A35D8DFE812F0350034003400340067
:104A500034003400340034003400340034003400B6
:104A6000A200340034003400340034003400340038
:104A70003400C7003400A200A200C700C700C7006E
:104A80003500A2000801340035003400E100A20026
:104A9000E10034003400F800F400A20034003400D7
:104AA000A2003400F400252A40F0048108F1FF3808
:104AB00000211AF8012F002AB9D1A11B5B46B1F5DC
:104AC000806F084680F08081002E00F082810025F2
:104AD0009DF81C2035608D083570069D002D40F036
:104AE00005817270019AB270002A00F00581029A65
:104AF000002A48D00DF1200AC6F1010751460AEB01
:104B0000020C11F8012BE519204612F0800F02F07B
:104B10007F0205D0A945C0F09A8000F8012B044619
:104B20006145EED1029FC6F10108CDF808900CADA9
:104B30005744D146C246B046BB46069E1F46019B1F
:104B400021461BB199F90020002A15DB002E00F048
:104B5000E7802A7801F8012B00220AEB02040846BC
:104B6000029B21448B4272D399F8001000F8011B7C
:104B700039468418FCF722FB09F101090135CB45C0
:104B8000DDD14646A01B11B0BDE8F08F1AF8012C0C
:104B90006C2A36D00CF1FF3EA644BEFBFCFE0CFB9B
:104BA0000EFE7246002E00F0EE8000211A44921B89
:104BB00091454CD3042B00F01281082B40F0048166
:104BC0000EF10804073525F00705F5E80223CEE9C4
:104BD000002308236DE70735073425F0070524F087
:104BE0000704F5E8022336B1DDF80CC0A444CC4537
:104BF0002DD8C4E900234FF0080C08340021634687
:104C000057E71AF8023C6C2B7CD0033424F0030ED7
:104C1000002E64D00EF10404A31B994517D3002184
:104C20004FF0040C55F8043BCEF80030042340E765
:104C30004FF0040C63463CE7033424F00304002ED9
:104C400000F0BC80231D9B1B994580F0B7806FF05E
:104C50001B0011B0BDE8F08F4FF0080C634628E749
:104C6000472A3FF625AF292A7FF61DAF2A3AD2B24E
:104C700007FA02F202427FF41CAF12F0625FAAD17F
:104C800012F001013FF415AF0CF1FF322244B2FBE8
:104C9000FCF20CFB02F29646002E87D1042B21D0A9
:104CA000082B40F0918007350EF1080425F0070528
:104CB00008358EE73FF6FCAE202A3FF4FAAEA2F1AB
:104CC0002301B1FA81F14909F3E6252A7FF4F1AE17
:104CD0004FF0040C08F1010801216346E9E6314672
:104CE0004FF0040C04350EF104049FE7F270019AB2
:104CF000B270002A7FF4FBAE029A002A7CD00DF13C
:104D0000200A0FE7073424F0070E002E4CD00EF1D6
:104D10000804A31B99459AD300214FF0080C51E7D2
:104D200099F8002058F8227048F822603846FBF7BE
:104D3000C7FA2146421C10E7324B9B4503D3324B46
:104D40009B45FFF460AE0022A31B0598B3F5007FDE
:104D500034BF00210121002808BF0021A1BB029916
:104D60000F2931D826B34031C3F38703694401F8D2
:104D7000203C01F8108C7AB9079B01330793029B02
:104D80000133029343E6314688E709F0070909F148
:104D90000404C9F1080922E663F07F0301F8203C0E
:104DA000019B01330193EAE731464FF0080C7AE7A3
:104DB000C2B109F10109E2E70122C5E7049B55F8F8
:104DC00004BB013B049317E66FF0150011B0BDE87A
:104DD000F08FA9F10800084411B0BDE8F08F0EF182
:104DE00004041FE7069B09F10209002BC7D15846AE
:104DF000FBF766FA8144C2E70846C4E66FF00D008F
:104E0000C1E600BFD4300808F8D70B0853B32DE92A
:104E1000F0471C7899465D780746DB78A4000E467B
:104E2000904604EB430499F802301C444C447DB195
:104E30004FF0000A14F8013B0AF1010A204649F834
:104E40002340FBF73DFA554500F101000444F1D140
:104E500009F10803D9F8042041463846B446BDE8B4
:104E6000F04760476FF01500704700BF024612F828
:104E7000013B23B34FF0000C6046C0B100B5614563
:104E8000A3F1400E1DD0BEF13A0F05D80CF1010C74
:104E9000002005E00028F2D1252B08BF80F001009A
:104EA00012F8013B002BF5D100205DF804FB252B07
:104EB00012F8013B08BF80F00100002BDDD118463D
:104EC0007047702BF1D0BEF13A0FE5D80020ECE727
:104ED0002DE9F04F99B00546884600AF90F802B032
:104EE000C7E90932D7F88830C3F3C0033B6291B9F0
:104EF000047846780BEB8404044456B1013408F17D
:104F000001082046FBF7DCF9464500F101000444A6
:104F1000F4D1A4EB0508EB787B63BBF1000F25D03F
:104F2000D7F8883013F001033B631FD02B786A68F1
:104F300005EB830A7B60BA619A00BB6A3A61002B79
:104F400000F04981D7F888305E464FF0000907F13C
:104F5000400003F00203FB625A465146FCF72EF96B
:104F60000AEB0B03FB617B6B2BBB64E07B6B002BC1
:104F700000F0E780D7F8883013F00203FB6200F0FE
:104F8000E0802B786A6805EB830A7B60BA619A003F
:104F9000BB6A3A61002B00F0B981D7F8883003F082
:104FA00001033B63BBF1000F40F00B8100260AEBCD
:104FB0000B03B146FB61FB694FF0000AB44AD7F816
:104FC00088109C1CB34B01F00401C7E9028B934687
:104FD0003A6A796114F8018C14F8021C55F828001B
:104FE000584502D2984280F0B880002A40F0D28022
:104FF000F86A002840F0C48009F1010007F1600C54
:1050000009F1280E5CFA80F009F1020C07F1380969
:10501000F14409F8101C5FFA8CF900F8108C0AF1C1
:10502000010A796B02348A45D4D1FB69D7E9028B36
:1050300003EB4103FB6195F801A0FA6A0AEB060352
:10504000DBB2002A40F0BB804FEA5902396B0029DD
:1050500040F0B380D7F8881011F0040F14BF494610
:105060000021BC6A2846A970EA7039697A6A6B70B7
:10507000A047041E6CDB7868002349467A6A60F317
:105080000703786B6AF30F23D7F828A06BF3174355
:1050900060F31F6307F150002B60D047B0F10009A7
:1050A000C0F21F81786B3B690BEB40017A6AF869AB
:1050B000A8EB0101C91AD047B0F1000847DBA144B1
:1050C000C844002E00F01B8154464FF00009D7F869
:1050D00024A0C7E90C65D7F88C5017E035F819B053
:1050E000A04700288044C0F2F680BBF1000F21D019
:1050F00030465946524609F10109A047002880442C
:10510000C0F2E9803B6B994500F0F98007F140035C
:105110007A6B012107F13F0013F8093052F8236040
:10512000524687F83F30002DD8D1A0470028804450
:10513000C0F2D1803046FBF7C3F8431C1FFA83FB53
:10514000D6E7BB6A1BB17A6A41462846984744466F
:1051500020466437BD46BDE8F08F2ABB396B79B96C
:10516000796900293FF45BAF09F1280107F13800A4
:1051700009F1010901445FFA89F901F8108C4EE741
:1051800006F1280107F1380001360144F6B201F8B2
:10519000208C44E7B8693A62FFF768FE3D4B3A6AF3
:1051A00000283FF425AF3AE7B8693A62FFF75EFEA0
:1051B000384B3A6A0028D1D031E7002151E700226C
:1051C00044E7D7F888305B077FF5F0AED946002674
:1051D00007F15000C0E6D7F88C204446BB6AD344A0
:1051E000161E9046994618BF01261AF8013B55F83D
:1051F0002300FBF765F8D7F8903001304B450444A5
:1052000004D91EB128F8190009F10109DA45ECD1D9
:10521000D7F888204B46796B02F00502002997D019
:10522000002A1B4A0AF102064FF000080CBF0221B7
:105230000121DFF860A091467962D7F8881001F06B
:10524000020B01F00101C7F82CB09B46396316F838
:10525000013C16F8021C55F823303A6A4B4501D23E
:10526000534519D24ABBFA6AE2B11846FBF728F84F
:10527000D7F88C3053B1D7F890305B4506D9431C32
:10528000D7F88C2022F81B300BF1010B044409E005
:10529000F8D70B08D43008084ABB3A6B002AE4D18F
:1052A0007B6AE41A08F101087B6B02369845CED17F
:1052B00020466437BD46BDE8F08FB869BB62FFF792
:1052C000D5FDBB6A0028CED02448036813F0060F32
:1052D0002BD1023CE6E7044664372046BD46BDE8D4
:1052E000F08F4C4664372046BD46BDE8F08FB86964
:1052F000BB62FFF7BBFDBB6A0028CED0E4E700210C
:105300007A6ABB6A44460846984721E74446BBF19F
:10531000000F04D0D7F888305A0700D5DA44D7F800
:10532000883003F0050200237AE7C7F828D08AB056
:105330006B46D9610A49BA6959614FF400719A61A3
:105340001A461984074B42F8103F00234FF41251BC
:1053500002F0A2FCD7F828D0BBE700BF68130024F6
:10536000EC3C0908040000010CB40346084640F276
:10537000051100B583B0DB6805AA0192984703B018
:105380005DF804EB02B070470F2838B51BD800EB6E
:1053900080030F4CBFF35B8F1546DB004FEA800C98
:1053A000E258BFF35B8F72B1083C19B123445B68CC
:1053B0008B4203D1844454F83C0038BD0BF0FEF915
:1053C0000560002038BD0BF0F9F909230360F8E708
:1053D000E81800240F2838B519D800EB80030F4CCB
:1053E000BFF35B8F4FEA800EDB00E558BFF35B8FA6
:1053F0006DB1A4F1080C0CEB030464680C6012B1ED
:105400000C336344136086445CF83E0038BD0BF0F7
:10541000D5F909230360002038BD00BFE818002437
:1054200070B50024214E4FF0FF334FF0FF3220487B
:10543000254670F043FB06F10803BFF35B8F1A5952
:105440001919BFF35B8F72B101352834102DF4D1D7
:105450000BF0B4F917234FF0FF350360144870F0D8
:10546000ADFB284670BDBFF35B8F51E8003F0133B1
:1054700041E80032002AF8D105EB85030020002125
:10548000BFF35B8F06EBC303C3E9000104F10C001B
:10549000304470F00BFB04F12000304471F052FFF7
:1054A000034870F08BFB284670BD00BFE018002455
:1054B000D414002410B400EB800C0A4C4FEACC0347
:1054C00004EBCC0CE150CCF804204AB11046D26871
:1054D00032B10C3340F20512234410BCFFF744BF35
:1054E00010BC7047E018002400EB800313494FEA1A
:1054F000800CDB0008330B4430B5BFF35B8F1A68B8
:10550000BFF35B8F02F1FF3E72B1BFF35B8F53E8D5
:10551000004F944203D143E800E5002DF7D1BFF3DB
:105520005B8FEAD1012A00D030BD844400220023E1
:1055300001EBCC01C1E9002330BD00BFE01800241D
:10554000092804D83030C3B200200B7070470F28F0
:1055500004D85730C3B200200B7070476FF01500AD
:10556000704700BF70B50C46014604F0010505EB1D
:105570005400984257D86608002D44D1002E41D0DF
:10558000013A01EB460E1CE0ACF1570C5FFA8CF3CC
:105590001B01DBB253704C78A4F1300C5FFA8CFC29
:1055A000BCF1090F07D9A4F1610CBCF1050F1CD89F
:1055B000573C5FFA84FC02316344714502F8013FB5
:1055C00020D091F800C0ACF13003DBB2092BDFD959
:1055D000ACF16103052BD7D9ACF14103052B22D8DF
:1055E000ACF1370C5FFA8CF3D2E7A4F14105052D3D
:1055F00019D8373C02315FFA84FC7145634402F8E4
:10560000013FDED170BD0C78A4F13003DBB2092B71
:1056100005D9A4F16103052B07D8573CE3B201314A
:1056200002F8013BAAE7002070BDA4F14103052B5D
:10563000F9D8373CE3B2F2E70020704730B48B680A
:105640000C685D1C4CB14A689A4206DD013A8D60D7
:105650009A4205D0E05430BC70478D6030BC704732
:105660000023A35430BC7047014B1860704700BF43
:10567000FC0600240FB400B583B004A951F8040B54
:10568000019101F089FF03B05DF804EB04B07047AD
:105690000CB430B587B0002504460AAB049103A9C9
:1056A000059553F8042B0095CDE90230064800F02B
:1056B000CFFCDDE904309842B8BF255407B0BDE8FF
:1056C000304002B0704700BF3D5600088C4604468B
:1056D00011461A46604608B5A04771F047FD0AF02A
:1056E00085FE00BF40F26C732DE9F041D0E904154E
:1056F000C468EA170131ED1804F1FF3442F10002E9
:1057000002298CBF00230123ED1A62F10002002A56
:10571000C0F2B5802B0DC5F313074FEAE27C724E41
:1057200043EA02330CF0210E2CF0170CC3F31303E1
:105730001F446E4B07EB123707EB12777744A3FB3E
:1057400007E3DB0803EB830303EB8303FF1A6744E0
:10575000DFF89CC1EB1B62EBE77203FB06F60CFB68
:105760000266A3FB0C3C16EB0C0600F1B980026844
:105770004FF03C0C02294FEA1313D0E9017E43EAB3
:1057800006734FEAE770B8464FEA2616CEFB0C8048
:1057900007464FEA081E40464FEA071C4CEA187CB1
:1057A0008CBF6FF002084FF00908BEEB000E4FEA05
:1057B000C6006CEB070C414440EA537040F26D1791
:1057C0004FEA8C0C01EBC1014CEA9E7C4FEA8E0E35
:1057D00001EB01111EEB020E01F102014CEBE27C28
:1057E000DA00D21846EB0000000140EA1270120104
:1057F000D21846EB0000000140EA12701201D21AE2
:1058000060EB06003B4E06FB0355384EA6FB053603
:10581000AB0807FB05332344374CA3EB5613A4FB1B
:105820000141940103EB91038101A41A41EA9261C1
:1058300061EB00021B19314942F100025B1862F171
:105840000002D91842EB0200CB1842EB000219010A
:10585000100140EA1370CB1A60EB02001A0101013B
:1058600041EA1371D31A61EB0001D801C90110EBB1
:105870000E0041EA53614CEB0101BDE8F0816FF489
:10588000C7731A4FEB1862F100021E0DC3F3130C1D
:1058900046EA02364FEAE27EC6F313060EF021080E
:1058A0002EF0170EB444104E0CEB123C0CEB127C95
:1058B000C444A7FB0C87FF0807EB870707EB8707A4
:1058C000ACEB07077744DB1B62EBE77203FB06F6E2
:1058D000074F07FB0266A3FB0737F6197FF547AFB3
:1058E0000F3346F1000642E7F5285C8F1F85EB5128
:1058F000295C8FC270FEFFFFCDCCCCCC9405F5FFA8
:1059000038B5FFF7EFFE05460C460AF057FF0022B8
:105910000346214628461A6038BD00BF836800EB65
:10592000C10CB3F5004F0DD3DCF80C3099421FD0F9
:10593000DCF80810043200EBC10C40F82230CCF83F
:105940000C300CE0BCF80630994211D0BCF80410C1
:10595000043200EBC10C40F82230ACF8063082680B
:1059600000EBC300B2F5004F2CBF8160818070470F
:105970000121C36802F1040C01FA02F223EA0203D6
:105980000022C36040F82C20704700BF70B48668C6
:10599000541A00EBC103891AB6F5004F4FEA4405CB
:1059A0001FD35E685D6001EB560186684D0000EB19
:1059B000C203B6F5004F2CBF5D605D808568B5F50C
:1059C000004F2CBF40F8324020F832408468B4F5D4
:1059D000004F0CD35B6802EB530370BC40F83310EC
:1059E0007047B3F802C05D8001EB5C01DDE75B88C6
:1059F00002EB530270BC20F832107047836800EB52
:105A0000C10100EBC20CB3F5004F10B519D3DCF89F
:105A100004304C685B0803EB54035C004C60816805
:105A2000B1F5004F06D3DCF8041002EB510240F848
:105A3000323010BDBCF8021002EB510220F83230B7
:105A400010BD4B88BCF802E05B0803EB5E034FEA35
:105A5000430EA1F802E0E2E7836800EBC102B3F570
:105A6000004F0AD252880123DA400132D21AB2FA28
:105A700082F2C2F11F02FFF751BF52685208012A99
:105A800001D00223F1E7704730B4846800EBC10213
:105A9000B4F5004F23D2538801255B0801335B1B0B
:105AA000B3FA83F3C3F11F0300EB830CDCF810504F
:105AB000DDB90125B4F5004F05FA03F5C36843EAE3
:105AC0000503C360CCF810102CBF916091808368EF
:105AD000B3F5004F2CBFD160D18030BC7047536804
:105AE0005B08012BF9D00225D8E7B4F5004F00EB95
:105AF000C50C1AD2BCF804309380846800EBC30351
:105B0000B4F5004F2CBFD560D5808268B2F5004F48
:105B10002CBFD960D9808368B3F5004F2CBFCCF877
:105B20000810ACF8041030BC7047DCF80830936003
:105B3000E3E700BFF8B5836804460D46CE00B3F531
:105B4000004F00EBC10714D3796805EB510100EB5E
:105B5000C1035B68D80736D5A159691A04EBC103A4
:105B60005B68DB0714D529462046BDE8F840FFF7FF
:105B70008BBF798805EB510100EBC1035B88DA0725
:105B800021D5A15B691A04EBC1035B88DB07EAD46A
:105B90002046FFF761FFA36820462A46B3F5004F71
:105BA0002CBFA159A15B691AFFF728FFA368204603
:105BB000B3F5004F2CBFA359A35BED1A2946BDE8EE
:105BC000F840FFF761BF2046FFF746FFA36829466C
:105BD0002046B3F5004F2CBF7A687A8805EB520255
:105BE000FFF70CFFA368B3F5004FB5D2A15B691AAC
:105BF00004EBC1035B88C9E72DE9F0418768B7F57D
:105C0000004F2CBF01F1FF330B46B3FA83F3C3F10E
:105C10001F0200EB820EDEF81060AEB134460325A1
:105C2000B7F5004F00EBC40C19D3DCF80480B1EBDE
:105C3000580F23D9DCF80C40A64205F1FF35CEF809
:105C4000104001D0002DEBD1C3F120034FF0FF3401
:105C5000C2689C4014400AD12046BDE8F081BCF8DF
:105C60000280B1EB580F09D9BCF80640E4E794FA7A
:105C7000A4F2B2FA82F2131D50F823402146FFF736
:105C80004DFE2046BDE8F081E1B100688368B3F5C0
:105C9000004F0BD20439091A21F00703C908034445
:105CA0005A8822F001025A80FFF744BF0839091AC6
:105CB00021F00703C90803445A6822F001025A6020
:105CC000FFF738BF704700BFF8B5056881B3AB6810
:105CD000B3EBD10F2CD9B3F5004F01F107042846DF
:105CE00034BF042308231C44E4082146FFF784FF43
:105CF000F0B1AB68C60005EBC007B3F5004F0FD39A
:105D00007B68B4EB530F15D343F001037B60AB68A2
